:100000000C9465000C940A2A0C940A2A0C940A2A6F
:100010000C940A2A0C940A2A0C940A2A0C940A2A90
:100020000C940A2A0C940A2A0C940A2A0C940A2A80
:100030000C940A2A0C940A2A0C940A2A0C940A2A70
:100040000C941E280C940A2A0C940A2A0C940A2A4E
:100050000C940A2A0C940A2A0C940A2A0C940A2A50
:100060000C940A2A0C940A2A0C940A2A0C940A2A40
:100070000C940A2A0C940A2A0C940A2A0C940A2A30
:100080000C940A2A0C940A2A0C940A2A0100015F93
:10009000800474047A8003E30418005418047A047A
:1000A0007C00545D0464046C80046C047480043E21
:1000B000045480035F03E3800454046400544D013E
:1000C0005F035F800418043E800011241FBECFEF41
:1000D000D0E4DEBFCDBFECE8F0E040E019C0B7915E
:1000E000A79137912791079107FD0EC097918791AE
:1000F000EF01F92FE82F0BBF07900D92A217B3075E
:10010000D9F7FE011BBE04C01D92A217B307E1F789
:10011000E93CF40721F70E949F270C948F00F89484
:02012000FFCF0F
:100122000895FC01EE0FFF1FEE0FFF1FEC55FC4F71
:10013200118210822091CC033091CD038217930754
:10014200C4F4880F991F880F991FFC01EC55FC4FCE
:10015200220F331F220F331F2C553C4F8481958170
:10016200A681B78181939193A193B193E217F3078B
:10017200A9F7ECECF3E08081918101979183808370
:100182000895FC01808191810E94570C089560E0DE
:1001920070E0FC0187A590A90E940D1E08958F9220
:1001A2009F92AF92BF92EF92FF920F931F93CF93C2
:1001B200DF93FC01248135812130310509F054C1DE
:1001C200028113810115110509F421C1C081D18178
:1001D200ECA4FDA4F3E0EF16F10409F47BC050F4A3
:1001E20031E0E316F10489F082E0E816F10409F443
:1001F20093C09CC0E4E0EE16F10409F47DC0F8E07F
:10020200EF16F10408F481C091C088A199A1AAA1B6
:10021200BBA10197A109B04821E08F3F3FEF9307AF
:10022200A3073FE7B30708F020E02093D5038F3FF1
:100232009F4FAF4FBF4760F488A199A1AAA1BBA16C
:10024200B095A095909581959F4FAF4FBF4F04C039
:1002520088A199A1AAA1BBA188A399A3AAA3BBA380
:100262000097A105F0E8BF0709F4FBC00197A109B7
:10027200B10988A399A3AAA3BBA321E00097A10572
:10028200B10509F020E02093D603892B8A2B8B2B12
:1002920049F488A599A5AAA5BBA58D7F88A799A78A
:1002A200AAA7BBA7E0917A04F0917B0409958C88F8
:1002B2009D88AE88BF88DC01CB0188199909AA09FB
:1002C200BB098093D7039093D803A093D903B0932B
:1002D200DA032CC0888599859093D1038093D0034B
:1002E2008CA19DA1AEA1BFA10197A109B1098CA3C7
:1002F2009DA3AEA3BFA31AC08E859F850E94222014
:100302009093D1038093D00311C08E859F859093E3
:10031200D1038093D0030AC0E2EAF3E080819181A5
:100322009093D1038093D003118210828CA59DA556
:100332009093D3038093D20388A599A5AAA5BBA5C0
:1003420021E0822781708093D4038E819F819093D4
:10035200CF038093CE03D0939F03C0939E03EA857D
:10036200FB858C859D85009749F030E0E139F307E4
:1003720029F46EEC73E00E94931A05C0309719F0CD
:100382008EEC93E0099510929F0310929E032FEF3B
:100392003FEFA90160E070E0C8010E94DC132FEF7B
:1003A2003FEF4FEF5FE7BE0184E893E00E9439130D
:1003B20084E0E816F10421F48E859F850E944B208B
:1003C20088A599A5AAA5BBA5816088A799A7AAA770
:1003D200BBA71092D5031092D6031092D7031092A6
:1003E200D8031092D9031092DA031092D10310921B
:1003F200D0038C8D9D8DAE8DBF8D0196A11DB11D3B
:100402008C8F9D8FAE8FBF8F1DA61CA62DC0CBEDEE
:10041200D3E088819981AA81BB81B695A7959795EA
:100422008795E1E08E2781708093D4031092CF03E9
:100432001092CE038AE090E09093D3038093D2038C
:10044200E0919C03F0919D038EEC93E009958881E5
:100452009981AA81BB81826088839983AA83BB83A5
:1004620003C01092D6031ECF80E0DF91CF911F917F
:100472000F91FF90EF90BF90AF909F908F90089553
:100482003F924F925F926F927F928F929F92AF9222
:10049200BF92CF92DF92EF92FF920F931F93CF936F
:1004A200DF9300D000D000D0CDB7DEB7FC012481AD
:1004B20035812115310509F065C010925F038091E5
:1004C200CC039091CD0399230CF4AEC10E947E28F7
:1004D200E091A403F091A50366A5E091A803F09131
:1004E200A9033097D1F04CEA53E0A0E0B0E021E05C
:1004F20030E096A5691710F4D901692F2F5F3F4F9D
:100502002A30310561F04C5F5F4FFA013497019058
:10051200F081E02D309769F702C0A0E0B0E0FD0164
:10052200EE0FFF1FEE0FFF1FEA55FC4F80819181F6
:100532009093A3038093A203FD01EE0FFF1FEE0F22
:10054200FF1FEC55FC4F208131813A832983CD0175
:100552000E9492000E948E2849815A8141155105BC
:1005620009F464C182E090E0FA0195A784A780A50E
:1005720091A5A2A5B3A5806480A791A7A2A7B3A7BE
:10058200312C87C12130310509F040C1FC010081C5
:1005920011818091DF039091E003892BD1F080914A
:1005A200DF039091E003019751F46091E1037091B0
:1005B200E203C8010E940D1E332433940BC06091E4
:1005C200E1037091E203C8010E942C1E332433948C
:1005D20001C0312CF80180A591A5A2A5B3A586FF83
:1005E200B7C084A595A5029721F481E080935F03AB
:1005F200AFC0F80180A591A5A2A5B3A581FF26C130
:1006020080A191A1A2A1B3A1AC01BD0141505109A8
:10061200610970484F3F5F4F6F4F7F4768F444272F
:100622005527BA01481B590B6A0B7B0B141615068A
:10063200160617065CF005C0181619061A061B06E0
:100642002CF00097A105B04809F000C1F801C08C58
:10065200D18CE28CF38C98012C5E3F4F3A83298334
:10066200C9010E948022CD28CE28CF2809F4E2C0F9
:100672008111E0C0EBC0F80180A491A4A2A4B3A4AC
:10068200C0A4D1A4E2A4F3A4F0E1CF22DD24EE249D
:10069200FF24F80140A451A462A473A420A531A5AB
:1006A20042A553A529833A834B835C830E94FD1F95
:1006B2009E838D8383FE07C0F801868597850E94FD
:1006C20013208111D4C0CD28CE28CF2881F02D81CE
:1006D2003E81C901A0E0B0E0F801408951896289F8
:1006E200738984179507A607B70708F0C3C042FEAF
:1006F20005C02D813E81232B09F0BFC0398135FF12
:10070200ABC0F801868597850E94F11F8111B8C0A0
:10071200A3C083E090E0F80195A784A781E08093CD
:100722005F0316C0F80180A591A5A2A5B3A58827ED
:10073200907F892B8A2B8B2B41F088E090E095A744
:1007420084A781E080935F0303C0F80115A614A675
:100752002FEF3FEFA90160E070E084E893E00E9490
:10076200DC13F80180A591A5A2A5B3A587FF31C02E
:100772000E947E280F2EF8EAEF2EF3E0FF2EF02DD6
:1007820021E030E03A832983F701808191810817C3
:10079200190721F489819A810E94920029813A8164
:1007A2002F5F3F4F3A83298334E0E30EF11C4981E6
:1007B2005A814A30510541F70E948E28F80180A5DE
:1007C20091A5A2A5B3A58F7780A791A7A2A7B3A74A
:1007D20060C0F80184A595A5892B71F086A590E0EB
:1007E2009C01220F331F820F931F880F991F880FBE
:1007F200991F805A9C4F02C080E993E02FEF3FEF90
:100802004FEF5FE7B8010E94391343C02230310530
:1008120079F41092E0031092DF031092E203109237
:10082200E10330905F0335C0312C33C0312C31C02D
:10083200312C2FC089819A810E94312281E090E07F
:10084200F80195A784A780935F0382CFF80186857C
:100852009785009709F00FCFF80184A195A1A6A171
:10086200B7A1892B8A2B8B2B09F053CF5BCF85E065
:1008720090E008C086E090E005C084E090E002C00D
:1008820087E090E0F80195A784A781E080935F0359
:100892005FCF832D26960FB6F894DEBF0FBECDBF75
:1008A200DF91CF911F910F91FF90EF90DF90CF904A
:1008B200BF90AF909F908F907F906F905F904F907E
:1008C2003F900895CF92DF92EF92FF920F931F9382
:1008D200CF93DF93EC016A017B01890180E993E008
:1008E2000E94C61284E893E00E94C61280E693E05A
:1008F2000E94C6128CE693E00E94C61288E793E03B
:100902000E94C612C701B6010E94662510939D037C
:1009120000939C03E4EAF3E08CEC93E011821082F2
:1009220034968E179F07D1F78FEF9FEF9093CD03E9
:100932008093CC031092A3031092A2031092E003BF
:100942001092DF031092E2031092E1031092DB0394
:100952001092DC031092DD031092DE031092A103C9
:100962001092A00310929F0310929E03CE010E9448
:100972006F25DF91CF911F910F91FF90EF90DF9044
:10098200CF90089580919E0390919F030895909334
:100992009D0380939C030895EBEDF3E080819181A8
:1009A200A281B381846080839183A283B3830895FB
:1009B2009093A1038093A00308952091DF033091C7
:1009C200E003232B81F49B012150310922303105B0
:1009D20060F47093E0036093DF039093E2038093EB
:1009E200E10381E0089580E0089580E00895209178
:1009F200CC033091CD030097D1F029303105CCF4EE
:100A0200ACECB3E0ED91FC9111979F012F5F3F4F4A
:100A120011963C932E93EE0FFF1FEE0FFF1FE8552A
:100A2200FC4F918380837383628381E0089580E029
:100A3200089580E008950F931F93CF93DF93009161
:100A4200CC031091CD0398012F5F3F4F121613066E
:100A52003CF5EC010E947E288091A4039091A503AD
:100A6200C817D907B9F048EA53E0D801119620E037
:100A720030E009C04C5F5F4FFA01349760817181A9
:100A82006C177D0749F02F5F3F4F2A173B0791F7FD
:100A9200C0E003C0C1E001C0C1E00E948E2801C0D5
:100AA200C0E08C2FDF91CF911F910F91089580911B
:100AB200CC039091CD03992334F08091CC03909193
:100AC200CD030196089580E090E008954F925F92E1
:100AD2006F927F928F929F92AF92CF92DF92EF921C
:100AE200FF920F931F93CF93DF93CDB7DEB7FB0136
:100AF200A42F009709F45EC026013701B901A801AD
:100B02001A2F9F017C01FC013387228744960E94A1
:100B12004522F70197828682412F133008F042E086
:100B2200F70146A7411451046104F0E87F0649F039
:100B32007094609450944094411C511C611C711C2F
:100B420005C0412C512C3201689477F8F70140A27C
:100B520051A262A273A214A215A216A217A215A6EE
:100B620014A680A591A5A2A5B3A5827480A791A77A
:100B7200A2A7B3A780A591A5A2A5B3A5826480A7C9
:100B820091A7A2A7B3A76A2DC7010E94961EF701DB
:100B9200148E158E168E178E178616861586148657
:100BA2002FEF3FEF4FEF5FE7B70184E893E00E943A
:100BB200391301C080E0DF91CF911F910F91FF9017
:100BC200EF90DF90CF90AF909F908F907F906F903B
:100BD2005F904F9008958F929F92AF92CF92DF9243
:100BE200EF92FF920F931F934901A12CC12CD12C9C
:100BF2007601C39400E010E098010E9467051F91FE
:100C02000F91FF90EF90DF90CF90AF909F908F90D9
:100C120008952F923F924F925F926F927F928F929E
:100C22009F92AF92CF92DF92EF92FF920F931F9318
:100C3200CF93DF9300D0CDB7DEB70115110519F1BF
:100C4200E114F10411F11601FA82E98238018901F5
:100C52009A01462F2C01C12CD12C76016894F7F809
:100C620061E970E00E946705813089F4A101698120
:100C72007A81C3010E949F18F20175866486F3018E
:100C82005782468205C080E003C080E001C080E058
:100C92000F900F90DF91CF911F910F91FF90EF90E6
:100CA200DF90CF90AF909F908F907F906F905F90EA
:100CB2004F903F902F900895009799F0DC011C9679
:100CC200ED91FC911D97309771F0668577856115DE
:100CD200710559F021E030E040E150E00E94DA1E57
:100CE200089580E0089580E0089580E008958F924D
:100CF2009F92AF92CF92DF92EF92FF920F931F9348
:100D020061157105A9F04B01FB0190AB87A728EC97
:100D120030E037872687A12CC12CD12C7601C394D1
:100D220000E010E0980162EC70E00E94670501C0EB
:100D320080E01F910F91FF90EF90DF90CF90AF90E6
:100D42009F908F900895009761F0FC0140A551A5F6
:100D520062A573A5406840A751A762A773A781E067
:100D6200089580E008956F927F928F929F92AF9242
:100D7200BF92CF92DF92EF92FF920F931F93CF9386
:100D8200DF9300D000D000D0CDB7DEB70F2EF0E653
:100D9200AF2EF3E0BF2EF02D66246394712C0F2E3C
:100DA200F4E5CF2EF3E0DF2EF02D0F2EFBED8F2E8C
:100DB200F3E09F2EF02D00E010E02EEB32E140E058
:100DC20050E061E472E084E893E00E949F1588237A
:100DD200E1F00F2EF8E7EF2EF3E0FF2EF02DF701F2
:100DE20082859385892B51F000E010E02EEB32E1F1
:100DF200A70160ED70E0C7010E949F15FCE0EF1AA9
:100E0200F108EC14FD0459F70FC0F50184AD95AD5E
:100E1200892B51F01A8219821C821B827E826D827A
:100E2200CE0101960E94D000F50182AD93AD892BCF
:100E320051F02FEF3FEF4FEF5FE760E973E084E897
:100E420093E00E943C16F40180819181A281B381DA
:100E520082FFB1CFEBEDF3E080819181A281B3817A
:100E62008E7F80839183A283B38380819181A281CB
:100E7200B3818B7F80839183A283B38380819181AD
:100E8200A281B381689412F8B695A7959795879534
:100E92001694D1F7F1E08F2781708093D40389E013
:100EA20090E09093D3038093D2031092CF031092D9
:100EB200CE03E091A003F091A103309719F08EECDC
:100EC20093E00995EBEDF3E080819181A281B381FA
:100ED200826080839183A283B38326960FB6F894AF
:100EE200DEBF0FBECDBFDF91CF911F910F91FF905B
:100EF200EF90DF90CF90BF90AF909F908F907F90B8
:100F02006F9008950097C1F0FC01248135814091D2
:100F12009E0350919F038417950789F0F3E02438CC
:100F22003F0781F083E02039380779F081E090E0D3
:100F3200232B69F480E0089580E090E0089584E036
:100F420090E0089582E090E0089583E090E00895B3
:100F5200FC0180A591A5A2A5B3A5482359236A2324
:100F62007B2381E0452B462B472B09F480E0089533
:100F72000F931F93213071F4FC0100A511A522A546
:100F820033A5402B512B622B732B40A751A762A78D
:100F920073A711C0FC0100A511A522A533A5409598
:100FA200509560957095402351236223732340A787
:0C0FB20051A762A773A71F910F9108952B
:100FBE00DC0181E05A968C935A9755961C921E929C
:100FCE0054971E96ED91FC911F97309711F0CD011D
:100FDE00099581E00895E0917804F0917904682FE5
:100FEE0080E090E009950895CF93DF93FC01608136
:100FFE00662361F0EC012196E0917804F09179047A
:10100E0080E090E0099569916111F6CFDF91CF9163
:10101E000895E0917604F0917704309781F100976E
:10102E0089F1228D338D2115314079F5813091056D
:10103E0019F4828193810895BC0161507109A281D6
:10104E00B3819C91992321F1FD01319640E050E04E
:10105E0020E030E09C3259F44F5F5F4F4617570740
:10106E0030F02F5F3F4FCD01820F931F08952F5FFA
:10107E003F4F91919111EECF80E090E0089580E086
:10108E0090E0089580E090E0089580E090E008956B
:10109E0080E090E00895BF92CF92DF92EF92FF92A0
:1010AE000F931F93CF93DF936B01E0907604F09034
:1010BE007704E114F10409F44CC06115710509F4CB
:1010CE004BC0009709F44BC0D7015A962D913C9115
:1010DE005B972115314009F045C0EC012197D701EE
:1010EE001296ED91FC91139720812223F1F1A0E04D
:1010FE00B0E000E010E040E050E080E090E0B62E7E
:10110E006D2DCA17DB0791F4CA17DB0788F12C3255
:10111E0091F1C8010196F601E00FF11F2083F6014F
:10112E00E80FF91F10828C018B2D962FF70122816B
:10113E003381F901E40FF51F70817C3209F41196A9
:10114E004F5F5F4FF901E40FF51F20812111D9CFB9
:10115E0014C080E090E011C0862F9D2D0EC080E05F
:10116E0090E00BC080E090E008C080E090E005C009
:10117E008C2D9D2D02C08C2D9D2DDF91CF911F9119
:10118E000F91FF90EF90DF90CF90BF900895E09178
:10119E007604F0917704309739F00480F581E02DD4
:1011AE0009950E947A0F089560E070E0CB010895D2
:1011BE00E0917604F0917704309739F00480F58150
:1011CE00E02D09950E94D80F089560E070E0CB01E4
:1011DE000895E0917604F0917704309739F0048009
:1011EE00F581E02D09950E947310089580E090E03E
:1011FE0008954F925F926F927F928F929F92AF92CD
:10120E00BF92CF92DF92EF92FF920F931F93CF93E5
:10121E00DF935C01EB01FC017080772009F441C083
:10122E00209709F441C08C01812C912CE12CF12CDA
:10123E0044244394512C872D8D7F8D3311F4842CAF
:10124E00952CFDE07F1203C0F80110822FC0C72C31
:10125E00072C000CDD08C6010E949729892BB9F0D6
:10126E008114910469F43701FFEF6F1A7F0AC601EA
:10127E000E94B229F501EE0DFF1D8083730107C098
:10128E00F501EE0DFF1D7082C70101967C012197BD
:10129E000F5F1F4FF8017080772041F0209759F6AD
:1012AE0005C0E12CF12C02C0E12CF12CF501EE0D64
:1012BE00FF1D1082C501DF91CF911F910F91FF90FD
:1012CE00EF90DF90CF90BF90AF909F908F907F90D8
:1012DE006F905F904F9008958F929F92AF92BF92B2
:1012EE00CF92DF92EF92FF920F931F93CF93DF93E4
:1012FE00CDB7DEB7009709F484C06115710509F406
:10130E0082C0F8018C01DC0111961C921E921D9672
:10131E007C936E931C971996DC92CE921897139627
:10132E00BC92AE92129715969C928E9214978F85C0
:10133E00988917969C938E93169789899A891B96EE
:10134E009C938E931A975196FC92EE9250975396C9
:10135E005C934E93529759963C932E935897C9018E
:10136E00019757969C938E9356975A961C925A971E
:10137E0055961C921E9254971F961C921E921E9763
:10138E009E96FC93EE939D9782EF97E09A969C9390
:10139E008E9399978BEF97E09C969C938E939B9749
:1013AE0080E198E090969C938E935F9780EF98E003
:1013BE0092969C938E9391978FED98E094969C9332
:1013CE008E9393978EEC98E096969C938E9395972A
:1013DE0082E598E098969C938E93979752968D916E
:1013EE009C915397A90160E070E00E94E529A70146
:1013FE0060E070E0F80185A596A50E94E52981E0E0
:10140E0003C080E001C080E0DF91CF911F910F916A
:10141E00FF90EF90DF90CF90BF90AF909F908F9006
:10142E0008958F929F92AF92BF92CF92DF92EF92DA
:10143E00FF920F931F93CF93DF93009799F161154E
:10144E00710591F14115510589F12115310581F192
:10145E0047015901EA017B016C01FC01608D718D20
:10146E00CA010E949B0DF70193878287029710F1A4
:10147E008881813609F58981843701F5D383C2834A
:10148E00B582A4821F7011870087F6018081918139
:10149E00F7019783868391828082F601F182E08242
:1014AE0081E00DC080E00BC080E009C080E007C085
:1014BE0080E005C080E003C080E001C080E0DF91E5
:1014CE00CF911F910F91FF90EF90DF90CF90BF9033
:1014DE00AF909F908F9008950097D1F0613051F4A6
:1014EE00FC0180819181909375048093740480E057
:1014FE0090E008958091740490917504009751F0D6
:10150E00FC0126813781309375042093740408956D
:10151E0080E090E008951F93CF93DF93009759F1E9
:10152E00162FEC018A8D811120C0862F660F990B24
:10153E000E949729892BC9F08C899D894A895B89DC
:10154E009C012F5F3F4FFA01E80FF91F1083EA89C4
:10155E00FB89E20FF31F10828E899F8928173907A6
:10156E0010F020E030E03D8B2C8B1D3031F4CE019D
:10157E000E94DF0703C080E001C080E0DF91CF91C1
:10158E001F910895EF92FF920F931F93CF93DF93C6
:10159E00009789F1FC01228D0689178941155105A5
:1015AE0061F14017510758F521112BC07B01EC0159
:1015BE004130510529F4FB0160810E94920A26C038
:1015CE00FB018081082E000C990B0E949729892B14
:1015DE00D1F0A8016DE070E0C7010E94830D892B48
:1015EE00A1F08A899B89A801B7010E94B80DCE018E
:1015FE000E94DF070BC080E009C080E007C080E0DA
:10160E0005C080E003C080E001C080E0DF91CF9193
:10161E001F910F91FF90EF900895EF92FF920F930D
:10162E001F93CF93DF93009709F16115710501F1B7
:10163E00FC01228DE688F78821111CC08B01EC017C
:10164E00B701C8010E949B0DE816F906A8F08A8919
:10165E009B89A701B8010E94B80D8A899B89B701A1
:10166E000E940009CE010E94DF0707C080E005C07E
:10167E0080E003C080E001C080E0DF91CF911F9138
:10168E000F91FF90EF900895CF92DF92EF92FF921D
:10169E000F931F93CF93DF93009709F4CDC061157D
:1016AE00710509F4CCC08B017C01DC01CD91DC917C
:1016BE00209709F4C7C06A817B81C8010E940D2959
:1016CE000817190709F0AFC06701BBE1CB0ED11C9B
:1016DE00F70116AA15AAD48FC38F60E870E0C8016F
:1016EE000E949B0D2A853B85821B930BD701D296B8
:1016FE009C938E93D1976A857B85F801E60FF71F31
:10170E005E96FC93EE935D97D4961C921E92D397A1
:10171E00009759F48885998593FFA4C080E098E0DE
:10172E00D6969C938E93D59793C020812F33C1F478
:10173E002885398532FF96C020E034E0D701D69651
:10174E003C932E93D5978F010F5F1F4F5E961C9380
:10175E000E935D970197D2969C938E93D19778C0F6
:10176E008230910508F47EC02D3309F07BC02181B3
:10177E002F33D1F4029709F075C08885998591FFB2
:10178E0071C080E092E0D701D6969C938E93D59748
:10179E008F010E5F1F4F5E961C930E935D97D29630
:1017AE001C921E92D19754C02885398530FF5AC09D
:1017BE005CC02C3211F44F5F5F4F21912111F9CF94
:1017CE004F5F5F4FF70154AB43AB28853985B901A5
:1017DE006F7077274617570708F444C03295229545
:1017EE002F7023273F7023272F7033272417350799
:1017FE00C8F120E031E036AB25AB168F058F01978F
:10180E0092AB81AB25C0D0927704C0927604D701FB
:10181E001C968D919C911D979093790480937804DA
:10182E00C601099529C00E80DF81C02D209709F0D1
:10183E0042CF8EEF9FE720C08EEF9FE71DC08EEF49
:10184E009FE71AC08EEF9FE717C081E090E814C0A3
:10185E00EC81FD81D701D5968D919C91D697892BE0
:10186E0091F6F3CF82E090E807C08F010F5F1F4F14
:10187E00F80140E050E0A1CFDF91CF911F910F9181
:10188E00FF90EF90DF90CF900895FC01892B39F0F7
:10189E00128E158A148A0288F389E02D108208951B
:1018AE008F929F92AF92BF92CF92DF92EF92FF9262
:1018BE000F931F93CF93DF93009709F4EBC0FC01B6
:1018CE00228D222309F4E8C0EC01028913890688CF
:1018DE00F789E02DE00FF11F1082688D798DC80118
:1018EE000E940009488D598D63E074E0C8010E9482
:1018FE007229892B09F4E5C06A897B89CE010E9481
:10190E004B0B7C018E3F9F4799F4488D598D66E0B5
:10191E0074E0C8010E947229892B09F4CAC0688D2F
:10192E00798DC8010E949B0D039708F0D3C0B6C0F5
:10193E00EDA5FEA5309759F41DC00F2EFDEFEF2E2D
:10194E00FFE7FF2EF02D03C0EE24E394F12C8081EF
:10195E00882381F002C0E12CF12C0BA51CA5CF0130
:10196E00F80109958A859B85009711F483EE93E023
:10197E00F8010995E114F10409F484C00BA51CA526
:10198E00F1E0EF16F10409F15CF4E1E0EE16E0E8A7
:10199E00FE0691F0F2E0EF16F0E8FF06F9F042C015
:1019AE008EEFE8168FE7F80679F1BCF5FDEFEF162E
:1019BE00FFE7FF0601F136C08C819D81009711F47F
:1019CE0086EE93E0F801099555C08A819B810097B8
:1019DE0011F48CEE93E0F80109954CC08C819D8139
:1019EE00009711F486EE93E0F80109958BE094E0F0
:1019FE00F80109953FC088859985009711F48FEEFF
:101A0E0093E0F801099536C08E819F81009711F4FD
:101A1E008BEF93E0F80109952DC08DA59EA5F801D9
:101A2E00099528C0FF2034F5C9A4DAA44DA55EA5FA
:101A3E00C701FF0CAA0BBB0B4C015D016627772774
:101A4E00CB01681979098A099B092AE00E94E010E6
:101A5E008C819D81009711F486EE93E0F801099533
:101A6E008AE3F60109958DA59EA5F8010995EDA5C8
:101A7E00FEA510828A859B85009711F483EE93E074
:101A8E00F8010995CE010E944C0CEDA5FEA5108221
:101A9E0081E025C080E023C080E021C0EDA5FEA539
:101AAE00309781F38081882369F355CF0BA51CA550
:101ABE00A2CFEDA5FEA53097C9F33FCF0BA51CA570
:101ACE0084CFEDA5FEA5309709F03ECFF7CF0BA53D
:101ADE001CA59ACFEDA5FEA53097C9F338CFDF919F
:101AEE00CF911F910F91FF90EF90DF90CF90BF900D
:081AFE00AF909F908F900895B6
:101B0600FC018E2F9F2F2191A22F022E000CBB0BC2
:101B1600A617B70761F041505109222331F041154C
:101B2600510579F780E090E0089580E090E008950F
:101B3600009791F06115710591F0FC012081222337
:101B460089F0319680E090E001962191222361F0A0
:101B560068177907C9F7089580E090E0089580E056
:101B660090E0089580E090E00895CF92DF92EF92A2
:101B7600FF920F931F93CF93DF936C017B01EA01D2
:101B860060E072E0C7010E949B0D8C01AC014F5FC3
:101B96005F4F4C175D0728F4B701C6010E94A929BB
:101BA6000BC0209749F02197AE01B701C6010E94EC
:101BB600A929CC0DDD1D1882C801DF91CF911F9197
:101BC6000F91FF90EF90DF90CF9008959B012150E9
:101BD600310981F0FC01E60FF71FDC0180E090E09F
:101BE6004C9152915D9340832150310901968217A1
:101BF6009307B0F308954F925F926F927F92AF92E0
:101C0600BF92CF92DF92EF92FF920F931F93CF93E3
:101C1600DF936B017C015A01672B682B692B11F04E
:101C2600211106C080E3F5018083C1E0D0E029C020
:101C36008A01C0E0D0E0422E512C612C712CC701E4
:101C4600B601A30192010E94C92821966A30710546
:101C56008105910510F0695C01C0605DF801619332
:101C66008F01C701B601A30192010E94C92869012B
:101C76007A01232B242B252B11F7BE01C5010E94C7
:101C8600E90DCE01DF91CF911F910F91FF90EF905B
:101C9600DF90CF90BF90AF907F906F905F904F9006
:101CA600089581E00895CF92DF92EF92FF920F930D
:101CB6001F93CF93DF938C01D62EC72E213029F0A8
:101CC600FA016081611113C01BC0FA0160816623AD
:101CD600B9F0ED2CF72EEA012196C701F801099516
:101CE6006991FFEFEF1AFF0A6111F7CF09C0EA0108
:101CF60021968D2D9C2DF801099569916111F9CFD9
:101D0600DF91CF911F910F91FF90EF90DF90CF90D1
:101D16000895AF92BF92CF92DF92EF92FF920F9308
:101D26001F93CF93DF938C017B012115310539F188
:101D3600EA016A01C20ED31E5E01688162956F7068
:101D460080E3860F8A3314F0695C01C0682FC701EF
:101D5600F80109952196F50160816F7080E3860F81
:101D66008A3314F0695C01C0682FC701F801099530
:101D760060E2C701F8010995CC15DD05E9F66DE0CD
:101D8600C701F80109956AE0C701F8010995DF91D5
:101D9600CF911F910F91FF90EF90DF90CF90BF9062
:101DA600AF900895AF92BF92CF92DF92EF92FF92DB
:101DB6000F931F93CF93DF937C01B62EA72E01308E
:101DC60021F021153105A9F420C021153105E9F0CE
:101DD6006A01C62FD72F8A01020F131FF6016191E0
:101DE6006F01CE01F701099521960C151D05B1F776
:101DF6000CC0EA018A01020F131F69918B2D9A2DDF
:101E0600F70109950C171D07C1F7DF91CF911F91B7
:101E16000F91FF90EF90DF90CF90BF90AF90089515
:101E2600CF92DF92EF92FF920F931F93CF93DF93A0
:101E36007C01D62EC72E013021F021153105A9F4DB
:101E460020C021153105E9F0C62FD72F6A018A0176
:101E5600020F131FCE01F7010995F60181936F0159
:101E66002196E017F107B1F70CC0EA018A01020FCB
:101E7600131F8D2D9C2DF701099589930C171D07AE
:101E8600C1F7DF91CF911F910F91FF90EF90DF90F7
:101E9600CF900895CF92DF92EF92FF926B017C0173
:101EA600022E000C330BFA01E20FF31F10822150B1
:101EB6003109BAF0BA019C2D9F7020E3290F2A330D
:101EC60014F0995C01C0922F31979083689413F8AF
:101ED600F694E794D794C7941694D1F7E617F707C4
:101EE60051F7CA01FF90EF90DF90CF9008959F922F
:101EF600AF92BF92CF92DF92EF92FF920F931F9312
:101F0600CF93DF93009709F43FC0EC01912CC12CCD
:101F1600D12C760132C0082E000C990B0E94BA29EA
:101F26008C015C01BB24C5010E948029892B01F12B
:101F3600939490ED900F9A3040F08FEB800F86309F
:101F460018F495EB900F01C0902FCC0CDD1CEE1C05
:101F5600FF1CCC0CDD1CEE1CFF1CCC0CDD1CEE1C8F
:101F6600FF1CCC0CDD1CEE1CFF1C9F70C92A05C093
:101F7600C5010E94A029892B51F08991882339F047
:101F860097E0991540F603C0C12CD12C7601C70104
:101F9600B601DF91CF911F910F91FF90EF90DF90E7
:101FA600CF90BF90AF909F9008957F928F929F920F
:101FB600AF92BF92CF92DF92EF92FF920F931F9351
:101FC600CF93DF93EC017C018EEFF81A04C08E01EB
:101FD600CE15DF0559F08E012196F8018081082E75
:101FE600000C990B0E94A029892B89F7F8018081A2
:101FF6008D3229F40F5F1F4F6FEF7FEF09C08B32D1
:1020060029F40F5F1F4F61E070E002C061E070E0ED
:10201600072E000C880B990B0E94E3276B017C01AD
:10202600F801C081CC2309F444C00F5F1F4FD0E0F4
:10203600812C912C540177247394CE3299F18C2FF4
:102046000C2E000C990BC0970A97B0F5D13051F4BD
:102056002DEC3CEC4CEC5DE3C701B6010E94002A76
:102066006B017C0120E030E040E251E4C501B4019F
:102076000E94002A4B015C016C2FCC0F770B880B5A
:10208600990B0E94E3279B01AC01C501B4010E9494
:10209600C32920E030E040E452E40E94C2294B010B
:1020A6005C0101C0D72DF801C1918F01C111C5CFC7
:1020B60003C0812C912C5401A7019601C501B401DE
:1020C6000E94002ADF91CF911F910F91FF90EF9010
:1020D600DF90CF90BF90AF909F908F907F900895A4
:1020E600EF92FF920F931F93CF93DF93009709F41C
:1020F6004CC08C017C012EEFF21A04C0E8010E15CB
:102106001F0559F0E8010F5F1F4F8881082E000C4C
:10211600990B0E94A029892B89F788818D3221F499
:1021260021966FEF7FEF08C08B3221F4219661E094
:1021360070E002C061E070E0888190ED980F9A30FF
:10214600D0F4219620E030E0A901440F551F220F5C
:10215600331F220F331F220F331F240F351F280F63
:10216600311D87FD3A9520533109899190ED980FDD
:102176009A3050F302C020E030E0629FC001639FB6
:10218600900D729F900D112402C080E090E0DF91C7
:10219600CF911F910F91FF90EF900895CF93DF930A
:1021A600EA01209731F00E94FE0D8C0F9D1FFC0165
:1021B6001082CE01DF91CF9108950F931F93CF9395
:1021C600DF938A0141155105F1F0992394F42A30E1
:1021D60031F43DE2FA013083C1E0D0E002C0C0E054
:1021E600D0E090958095709561957F4F8F4F9F4F6A
:1021F60002C0C0E0D0E0C00FD11FAE010E94FE0DAC
:10220600C80FD91F1882C801DF91CF911F910F9176
:102216000895FB013097B9F0813051F484E780834B
:1022260082E7818385E7828385E6838314820BC0F8
:1022360086E6808381E681838CE6828383E78383D7
:1022460085E684831582CF010895FB01309709F452
:102256005BC0823009F128F4882391F0813031F097
:1022660046C0833041F1843099F141C084E78083D0
:1022760082E7818385E7828385E68383148244C06F
:1022860086E6808381E681838CE6828383E7838387
:1022960085E68483158238C084E7808399E6918336
:1022A6009DE6928395E693839FE6948395E79583CF
:1022B6008683178229C082E7808389E6818393E734
:1022C600928383838EE6848387E6858316821CC089
:1022D60086E6808381E681838CE68283838389E632
:1022E60084838EE6858387E6868317820DC085E71D
:1022F60080838EE681839BE6928383839FE6948325
:1023060097E7958386831782CF010895DC01CB0179
:10231600BF7721E00097A048BF4709F020E0822F51
:1023260008950F931F938B019C0100271127207896
:102336003F770115110520483F4761F4DC01CB01C9
:10234600AF77BB2721E0892B8A2B8B2B09F420E062
:10235600822F01C080E01F910F9108954F925F92E6
:102366006F927F929F92AF92BF92CF92DF92EF923F
:10237600FF920F931F93CF93DF936B017C01EA01CA
:10238600922E209709F4D3C020E030E0A9010E94E4
:10239600F72988230CF4C2C02EEE33EE4CE650E04B
:1023A600C701B6010E94F22988230CF0B7C080E36A
:1023B60088839EE299838A831B82B9C020E030E03D
:1023C600A901C701B6010E94F729181614F08DE27B
:1023D60001C08BE2888389E689838EE68A8386E656
:1023E6008B831C82A4C0C701B6010E949411813060
:1023F60039F48EE6888391E699838A831B8297C097
:102406002AE0291520F40F2EFAE09F2EF02D20E069
:1024160030E0A901C701B6010E94F22988230CF019
:102426006FC0F7FAF094F7F8F0948DE2FE0181930D
:102436008F01C701B6010E944F282B013C012AE0FB
:10244600A8010E94FE0D5C018C010F5F1F4F9920B1
:10245600E9F1C301B2010E94E1279B01AC01C7016A
:10246600B6010E94C229F2E0AF0EB11CFE01E00FD8
:10247600F11F2EE220839A948E010A0D1B1D792CE2
:1024860020E030E040E251E40E94002A6B017C012A
:102496000E94C92980E3860FF80181938F01062ED9
:1024A600000C770B880B990B0E94E3279B01AC016C
:1024B600C701B6010E94C2297A94FFEF7F12E0CFCE
:1024C6002FEFA21AB20A8501090D111DFE01E00FB8
:1024D600F11F10822CC0C301B2010E94E1279B01AB
:1024E600AC01C701B6010E94C2295801EFEFAE1A2E
:1024F600BE0AFE01E00FF11F2EE220839A94BCCFA4
:10250600C701B6010E944F282B013C012AE0AE010B
:102516000E94FE0D8C019110DECFD8CFD701C601E7
:10252600BF770097A048BF4709F05DCF47CFCE01E0
:10253600DF91CF911F910F91FF90EF90DF90CF9099
:10254600BF90AF909F907F906F905F904F9008954F
:10255600DC0114962D913C9115972130310549F4F3
:10256600ED91FC91119712968D919C9113979583FD
:10257600848380E00895FC01808191810895FC01A7
:10258600828193810895FC01892B31F0178216828E
:1025960011861086138612860895CF93DF93FC0169
:1025A600892B09F44EC0A481B581109709F44BC05C
:1025B60016968D919C911797E817F90781F4C081BB
:1025C600D1811796DC93CE931697209729F4199606
:1025D6001C921E92189728C01B821A8225C0189634
:1025E6008D919C911997E817F90781F4C281D381DF
:1025F6001996DC93CE931897209729F417961C9278
:102606001E92169711C0198218820EC0C281D381FC
:102616008081918199838883C081D181209721F01F
:10262600828193819B838A831A968D919C911B97B5
:1026360001971B969C938E931A971582148281E0BC
:1026460003C080E001C080E0DF91CF9108959C0136
:102656006115710549F081E0FB01448155814217FE
:10266600530719F080E0089580E00895CF92DF9235
:10267600EF92FF920F931F93CF93DF93009709F486
:1026860088C06115710509F486C02F3FAFEF3A0780
:102696004A075A070CF481C069017A01EB018C01E3
:1026A6000E942A1381117BC01B821A82198218820A
:1026B6001D821C82F801468157814115510529F476
:1026C600D783C683D187C0875AC0FFEFCF16DF06F0
:1026D600EF06FF0671F459834883D8011696ED91EB
:1026E600FC911797D383C2831796DC93CE931697E4
:1026F60046C0F80182859385A0E0B0E00197A10964
:10270600B109C816D906EA06FB065CF496011C1444
:102716001D0434F5DA01ED91FC91309799F4FA0134
:1027260020C0D8010084F185E02DD183C08318969E
:102736008D919C9119979B838A831996DC93CE93EE
:1027460018971DC080E090E001C0FA01019682173B
:1027560093073CF44081518141155105B1F701C001
:10276600FA018081918199838883FB83EA83A08122
:10277600B1811396DC93CE931297D183C083F8016F
:10278600828593850196938782871D830C8381E0DA
:1027960007C080E005C080E003C080E001C080E0A3
:1027A600DF91CF911F910F91FF90EF90DF90CF9027
:1027B6000895AF92BF92CF92DF92EF92FF920F935E
:1027C6001F93CF93DF93DC0116960D911C911797FB
:1027D6000115110509F485C02F3FBFEF3B074B07D5
:1027E6005B070CF479C069017A01B72EA62EEC01BD
:1027F6000E942A13882351F08A2D9B2D0E94D01205
:10280600882309F46CC00A2D1B2D6BC01C141D04F3
:102816001E041F046CF0D801ED91FC91FF83EE833A
:10282600309719F4198618864EC0138212824BC04F
:102836008A859B85A0E0B0E00197A109B1098C15B6
:102846009D05AE05BF058CF408851985D80112963D
:10285600ED91FC911397F987E887309719F41F8259
:102866001E8231C0118210822EC0B1E0CB1AD1086F
:102876001C141D04A4F4D801ED91FC91309789F045
:1028860040E050E001C0FB014F5F5F4F4C155D0516
:102896004CF46081718161157105A9F703C0F801D7
:1028A60001C0F80100811181D8012D913C91119749
:1028B600318320838D919C91892B29F0D901139620
:1028C600FC93EE931297F801158214828A859B85F4
:1028D60001979B878A8705C000E010E002C000E0F0
:1028E60010E0C801DF91CF911F910F91FF90EF90FB
:1028F600DF90CF90BF90AF900895009721F0FC0134
:1029060086819781089580E090E00895009721F0F0
:10291600FC0180859185089580E090E00895FC0192
:10292600892B39F081E026813781232B19F080E04D
:10293600089581E00895009721F0FC018285938532
:10294600089580E090E008956F927F928F929F9213
:10295600AF92BF92CF92DF92EF92FF920F931F93A7
:10296600CF93DF9300D000D0CDB7DEB7009709F440
:1029760070C06115710509F46EC0DC011A96CD9020
:10298600DC901B97B2E0CB16D10408F466C05B015D
:102996004C01E2E0CE1AD108612C77247394D4015D
:1029A60016960D911C911797E12CF12C1A83098329
:1029B600F801808191819C838B83CE010196F5017C
:1029C6000995813061F5D80112962D913C911397A6
:1029D600ED91FC912115310521F0D901ED93FC9380
:1029E60005C0D4011796FC93EE93169780819181CA
:1029F600D80111969C938E931396FC93EE9312979F
:102A060080819181009729F0DC0113961C930E9327
:102A160012971183008333832283672C03C0F80146
:102A260000811181FFEFEF1AFF0ACE14DF0408F0D0
:102A3600BDCF21E0C21AD10808F0B1CF01C08C0188
:102A4600D8018D919C910097D1F7F40111870087E9
:102A560005C0612C03C0612C01C0612C862D0F902E
:102A66000F900F900F90DF91CF911F910F91FF90D4
:102A7600EF90DF90CF90BF90AF909F908F907F9018
:102A86006F9008956115710511F1009711F1E2E15A
:102A96002E3B3E0711F1225C324141F180E0089560
:102AA600FA012481358162177307A9F4FC01518369
:102AB600408381E00895FB012681378103C0FB0135
:102AC60020853185FC013183208381E0089580E0F3
:102AD600089580E0089580E008952EEB32E1FC0130
:102AE6003383228341155105D9F6E5CF22EC32E135
:102AF600FC01338322834115510591F6E0CF0F93F4
:102B06001F93CF93DF93009779F0FC010081118129
:102B16000115110559F0EC010280F381E02DC80181
:102B260009959983888302C000E010E0C801DF910F
:102B3600CF911F910F910895AF92BF92CF92DF92DE
:102B4600EF92FF920F931F93CF93DF9300D000D0A5
:102B560000D0CDB7DEB70097E1F161157105D9F167
:102B6600A2E12E3B3A0709F454C0B2E1223C3B07EE
:102B760009F43FC080E06CC069015B0101151105D5
:102B860039F0F801248135818217930709F44FC083
:102B9600CE010196F501099581115AC081E090E0B8
:102BA6009E838D83E114F10409F448C0C701F60140
:102BB6000995082F192FFA82E982CE010196F501AF
:102BC6000995811145C0E02EF12EE114F10471F74B
:102BD60035C080E03DC080E03BC01A8219825C832C
:102BE6004B831E821D82DC011896ED90FC9019978E
:102BF600C3CFDC011696ED91FC911797EF2B69F781
:102C060080E026C01A8219825C834B831E821D8255
:102C1600B3CFFC01E680F780E114F10499F780E078
:102C260017C081E090E09E838D837801BFCFCE01EF
:102C36000196FB0109958823A1F30AC01A8219821D
:102C460082E090E09E838D83CE010196F501099581
:102C560026960FB6F894DEBF0FBECDBFDF91CF919B
:102C66001F910F91FF90EF90DF90CF90BF90AF90A4
:102C760008958F929F92AF92BF92EF92FF920F9319
:102C86001F93CF93DF93009709F4A6C061157105D2
:102C960009F4A4C02F3FAFEF3A074A075A070CF4CE
:102CA6009FC0DB011696ED91FC911797EF2B09F467
:102CB60099C049015A01EB017C0100E010E02EEBBE
:102CC60032E1AC016BEA72E1CD010E949F15F7017A
:102CD600468157814115510549F48E819F8197831D
:102CE6008683888599859187808768C0FFEF8F16D0
:102CF6009F06AF06BF06A1F4E885F9855183408398
:102D0600D7011696ED91FC9117978885998593833F
:102D160082838E819F8117969C938E9316974EC0C1
:102D2600F70182859385A0E0B0E00197A109B1097A
:102D360088169906AA06BB065CF4940118141904B1
:102D460064F5DA01ED91FC913097C9F4FA0126C0D9
:102D5600D7010084F185E02D8E819F819183808348
:102D6600EE81FF8118968D919C91199793838283AA
:102D76008885998519969C938E9318971FC080E035
:102D860090E001C0FA010196821793073CF4408156
:102D9600518141155105B1F701C0FA01A885B985E0
:102DA600808191818D939C93AE81BF811396FC9314
:102DB600EE9312978E819F8191838083F7012285FE
:102DC60033858A859B85820F931F93878287CE01E1
:102DD6000E94C61281E007C080E005C080E003C003
:102DE60080E001C080E0DF91CF911F910F91FF90AD
:102DF600EF90BF90AF909F908F900895CF93DF9301
:102E0600009709F490C06115710509F48EC0861704
:102E1600970709F48CC0DC0114962D913C91159707
:102E26002115310509F485C0EB014C815D8124171C
:102E3600350709F080C0288139818217930711F47C
:102E4600CB01B901FC01A281B381EB014881598113
:102E56000480F581E02D268137818217930719F4C6
:102E66007783668305C06217730711F49783868399
:102E7600208531858217930719F47187608705C00D
:102E86006217730711F491878087FC0120813181D5
:102E96006217730731F4EB01EA81FB818E179F07F6
:102EA60061F0EC01EA81FB816E177F0779F4EB0193
:102EB600E881F9818E179F0749F4FC013383228349
:102EC600EB012A813B813983288309C0EB01EA8122
:102ED600FB81EC01FB83EA83FB0131832083EB0159
:102EE600BB83AA83FC01518340830280F381E02DDA
:102EF600309711F091838083DC01ED91FC9130973E
:102F060011F093838283EB01EA81FB81309711F004
:102F160071836083DB01ED91FC91309771F07383CF
:102F2600628381E00BC080E009C080E007C080E0DA
:102F360005C080E003C080E001C081E0DF91CF9151
:022F46000895EC
:102F4800EF92FF920F931F93CF93DF9300D000D09F
:102F5800CDB7DEB7FC0122A133A1232BF1F17C010F
:102F680086859785009739F10E94FD1F8C0120C046
:102F7800BE016F5F7F4FF701868597850E94772096
:102F88008130A1F489819A81AB81BC810696A11D0B
:102F9800B11D0397A105B10548F040E0BE016F5F80
:102FA8007F4FF701868597850E94AD200150110952
:102FB80001151105E9F6F70182A193A102960E9475
:102FC8006422F70182A193A10A960E946422F70164
:102FD80082A193A142960E9464220F900F900F90B5
:102FE8000F90DF91CF911F910F91FF90EF9008956F
:102FF8008F929F92AF92BF92CF92DF92EF92FF9201
:103008000F931F93CF93DF93EC018B0149015A0172
:103018007C0120E1E20EF11C888E998EAA8EBB8E6F
:10302800E881F981309751F0CE8CDF8C81E090E80F
:103038009F8F8E8FC7010995DF8ECE8E01151105E2
:1030480009F457C08EEF88168FEF9806A806B806C1
:10305800E1F5CAA0DBA0C114D104B9F1D6015A9692
:103068008D919C915B97009781F1ED91FC91309740
:1030780061F12081318102171307E9F40AC0F901CF
:10308800285F3F4FD90118976D917C910617170754
:10309800B9F4428153816481758186819781880F53
:1030A800991F880F991F880F991F02968C0D9D1DD7
:1030B8000E9445220AC09F01285F3F4F40E050E030
:1030C8004F5F5F4F84179507D1F6C701F80109953F
:1030D8008330F0E89F0714F483E090E89F8F8E8F89
:1030E8001D8B0C8BE881F981309769F0C701099530
:1030F8000AC083E090E89F8F8E8F1D8A1C8AE88122
:10310800F981309799F7DF91CF911F910F91FF9037
:10311800EF90DF90CF90BF90AF909F908F900895E1
:1031280084E090E80895FC0124813581318320836F
:1031380084E090E80895FC01892B39F16115710547
:1031480031F173836283718B608B138A128A84E0F6
:1031580090E8958F848F158A148A108E118E128E9E
:10316800138E11A210A251834083158214821782F4
:10317800168217861686118610861386128615867D
:10318800148613A212A281E0089580E0089580E0D9
:103198000895EF92FF920F931F93CF93DF930097B9
:1031A80081F16115710579F179018A01EC017BA33F
:1031B8006AA3CB0102960E9464228AA19BA10A9667
:1031C8000E9464228AA19BA142960E946422011552
:1031D800110569F0E114F10451F0EAA1FBA1F38EA5
:1031E800E28EEAA1FBA11183008381E00DC0EAA170
:1031F800FBA1138E128EEAA1FBA11182108281E03D
:1032080003C080E001C080E0DF91CF911F910F9152
:10321800FF90EF900895CF93DF93DB016330710542
:10322800B0F40097B1F0EC01EAA1FBA1309799F056
:10323800BA01A901CD01880F991F880F991F880F1E
:10324800991F02968E0F9F1F0E94452205C080E09D
:1032580003C080E001C080E0DF91CF91089500971E
:10326800B1F16230710561F138F46115710559F0F9
:1032780061307105F9F008956330710529F1643002
:103288007105A1F00895FC01518B408B138A128AB5
:10329800158A148A4FEF5FEFBA01408F518F628F02
:1032A800738F24E030E8358F248F0895FC01538311
:1032B80042830895FC01138A128A158A148A089594
:1032C800FC01318320830895FC011582148208953E
:1032D800009799F06115710591F04115510589F034
:1032E8002115310581F0FB0131832083538342830B
:1032F800FC017583648381E0089580E0089580E08F
:10330800089580E0089580E00895CF93DF934115F4
:10331800510579F02115310571F0FA01DB01EC0155
:103328007F876E8744E050E0BF01CD010E94D31F24
:1033380003C080E001C080E0DF91CF9108952F9213
:103348003F924F925F926F927F928F929F92AF922D
:10335800BF92CF92DF92EF92FF920F931F93CF937A
:10336800DF93CDB7DEB727970FB6F894DEBF0FBE51
:10337800CDBF009709F489C0FC01E480F580E11411
:10338800F10409F484C04D3FFFEF5F076F077F0723
:1033980008F07FC0FC01C088D188F7012081318105
:1033A800232B09F478C02A013B019B838A831F825F
:1033B8001E8200E010E0198240969D838C83F701FD
:1033C800A281B3818E819F81A80FB91F12964D915A
:1033D8005D916D917C9115974415550566057705A6
:1033E80009F044C08D919C911197009719F0C81667
:1033F800D906E1F516968D909C9017971896ED9141
:10340800FC9119971A96AD90BC901B971C962D901D
:103418003C901D97309729F08C819D8109958130CA
:10342800E9F4EA81FB81918A808AA114B104C9F088
:10343800F5018489958928163906B1F06089718962
:103448002DEF3FEF4FEF5FEFC5010E94FC17F5012D
:10345800318A208AC5010E94A4171EC0F1E0F983B1
:1034680005C021E0298302C081E089830F5F1F4FD7
:10347800EE81FF813E96FF83EE83F7018081918183
:103488000817190708F49BCF07C0198205C01982CD
:1034980003C0198201C01982898127960FB6F89452
:1034A800DEBF0FBECDBFDF91CF911F910F91FF906F
:1034B800EF90DF90CF90BF90AF909F908F907F90CC
:1034C8006F905F904F903F902F900895CF93DF9328
:1034D80000D000D0CDB7DEB749835A836B837C8395
:1034E800009789F04F3F5F4F6F4F7F4F71F0FC019E
:1034F80086859785009759F0422FBE016F5F7F4FF1
:103508000E94AD2005C080E003C080E001C080E0DB
:103518000F900F900F900F90DF91CF9108952F92F9
:103528003F924F925F926F927F928F929F92AF924B
:10353800BF92CF92DF92EF92FF920F931F93CF9398
:10354800DF93CDB7DEB728970FB6F894DEBF0FBE6E
:10355800CDBF5B01EEE3F4E022E534E0158214828E
:103568001382128234962E173F07C1F710923F0438
:1035780010923E0421E0DC0194962C938C01C12C1E
:10358800D12C0F2EFEE3EF2EF4E0FF2EF02D222497
:103598002A94322C21010115110531F1F7012081FE
:1035A800318125303105D0F4C9010196918380839A
:1035B800220F331F220F331FF901E25CFB4F1383E5
:1035C8000283880F991F880F991FFC01E25CFB4F4B
:1035D800D182C082C901805C9B4F6C01D8011A96C8
:1035E8000D911C911B97D7CFC114D10409F439C18F
:1035F800F70180819181009709F433C1D6010D91BB
:103608001C9111971296CD90DC9013970197918396
:1036180080830115110509F4BECFD8019096ED916C
:10362800FC9191973097D9F1208931891C968D9119
:103638009C911D972817390709F0FDC084A1813096
:1036480009F0F9C094968C91813009F405C1F9C04C
:10365800F801608971892DEF3FEF4FEF5FEFC801E7
:103668000E94FC17C8010E94A417F3C0D8019496C1
:103678008C91882309F4EDC080E00BC0F8016089C3
:1036880071892EEF3FEF4FEF5FEFC8010E94FC17E3
:10369800E3C0D80194968C93813009F0C6C0F80134
:1036A80060887188B78AA68A848995896816790698
:1036B80079F0938B828B868D978D958F848F2EEFE3
:1036C8003FEF4FEF5FEFB301C8010E94FC17ADC099
:1036D80029823A824B825C8286859785892B09F4F8
:1036E8006CC082A193A1892B09F446C08AEF9FEF91
:1036F800AFEFBFEF8D839E83AF83B887812C912C6A
:10370800C401880F991F880F991F880F991F029667
:10371800D80192962D913C919397820F931F0E9406
:1037280080228130B9F420E04D815E816F817885F7
:10373800C8010E946A1AC401880F991F880F991F2F
:10374800880F991F0296F80122A133A1820F931FB7
:103758000E946422FFEF8F1A9F0A8D819E81AF819C
:10376800B8850196A11DB11D8D839E83AF83B8874F
:1037780093E08916910421F6BE016F5F7F4FD8014F
:103788001E968D919C911F970E9477208130A1F5FC
:10379800F80180859185892B41F089819A81AB81D7
:1037A800BC81808F918FA28FB38F49815A816B81A1
:1037B8007C81C8010E94A3191FC000A0F1A1E02DBF
:1037C8003097D1F0808D918DA28DB38DAC01BD0164
:1037D8004D5F5F4F6F4F7F4F423051056105710557
:1037E80020F089839A83AB83BC8349815A816B819A
:1037F8007C81C8010E94A31929813A814B815C818F
:10380800B301C8010E94FC17F801808991896816E4
:10381800790659F02DEF3FEF4FEF5FEFB301C80185
:103828000E94FC17C8010E94A417D80118960D9190
:103838001C911997B0CEF80184A1813009F016CFF8
:1038480007CFD80194968C91882309F417CF81E08B
:1038580020CFF80114A2E9CFE1E0D8019496EC93C7
:103868001ECF28960FB6F894DEBF0FBECDBFDF91EE
:10387800CF911F910F91FF90EF90DF90CF90BF9065
:10388800AF909F908F907F906F905F904F903F90F8
:103898002F900895009711F04096089580E090E0E9
:1038A8000895FA010097B1F061157105A9F03097F4
:1038B800A9F091A380A375876487DC0118962D91E0
:1038C8003C9119973387228719965C934E931897E2
:1038D80081E0089580E0089580E0089580E00895EB
:0C38E800009719F0FC0171A360A3089583
:1038F400CF93DF93DB01FC013A9601C0F9012081EB
:1039040031812A173B07D0F342815381BF01640FF1
:10391400751FA617B70749F412966D917C911397FA
:10392400460F571F53834283DF0112964D915C91DA
:103934001397BD01640F751F26173707D9F4EC01DF
:10394400888199816817790789F0EB018A819B81C5
:10395400480F591F13965C934E931297C081D181DF
:103964008881998111969C938E9307C011967C93BC
:103974006E9303C011963C932E93AE17BF0711F0BC
:10398400B183A083DF91CF910895FC01892B41F08D
:1039940073836283558344831182108281E0089586
:1039A40080E00895009729F090935504809354047F
:1039B400089586E594E09093550480935404089503
:1039C400009709F161157105F1F0FB013897228127
:1039D4003381FC0140855185F901E423F523EF2B64
:1039E40091F0409550952423352368507109FB01CB
:1039F40033832283FC0146815781240F351F37838B
:103A040026830E947A1C0895BC01809154049091ED
:103A140055040E94E21C0895EF92FF920F931F93A6
:103A2400CF93DF93DC01892B09F4C6C08D919C915F
:103A34001197892B09F052C01496ED91FC911597BA
:103A440084E0A635B80761F4C6E5D4E08FE591E0DB
:103A54009B838A8380E092E09D838C831982188201
:103A64001D961C921E921C971296CD91DC91139771
:103A7400CE0187709927892B41F0CE010796887F64
:103A8400EC0FFD1FE81BF90BEC011B96DC93CE93A6
:103A94001A97EC0FFD1F38979F01287F11963C93CE
:103AA4002E93F901118210828D919C911197FC0142
:103AB40013821282F901EC1BFD0BFB83EA838D91C7
:103AC4009C911197998388831796FC93EE9316978C
:103AD40080E090E819969C938E93189718962D91F0
:103AE4003C91199726233723232B09F068C06115CD
:103AF400710509F467C0AB01485F5F4FCA01877065
:103B04009927892B19F0487F485F5F4F411551056C
:103B140009F45BC016968D919C91179784179507AD
:103B240008F456C0FD013A961A96CD91DC911B9784
:103B340002C0FE01E9012A813B812417350728F4DC
:103B44002881398121153105A1F78D919C91119717
:103B5400C817D90709F43FC08D01E080F18088E0DF
:103B6400E80EF11C88819981918380838A819B81ED
:103B7400841B950B8131910558F0BE01640F751FAC
:103B8400FB01938382835B834A83CD010E947A1C69
:103B9400F801868197812A813B81821B930B97834D
:103BA40086832A813B8180859185822B932B9B83FD
:103BB4008A831982188211C0E12CF12C0EC0E12CE9
:103BC400F12C0BC0E12CF12C08C0E12CF12C05C028
:103BD400E12CF12C02C0E12CF12CC701DF91CF9133
:103BE4001F910F91FF90EF900895BC0180915404B0
:103BF400909155040E940E1D0895FC01892B11F427
:103C0400E6E5F4E08481958120813181232B11F054
:063C1400868197810895EE
:103C1A00FC01892BC1F084A195A1A6A1B7A18F3F70
:103C2A009F4FAF4FBF4F89F084A195A1A6A1B7A11D
:103C3A000196A11DB11D84A395A3A6A3B7A371875D
:103C4A00608781E0089580E0089580E008950E94E9
:103C5A00F8040895009761F0FC0144A155A166A1FA
:103C6A0077A1452B462B472B29F40E941C05089562
:103C7A0080E0089581E00895CF93DF93009789F05B
:103C8A00EC0140E450E060E070E00E94A907813056
:103C9A0049F442E050E060E070E0CE010E94A907DA
:103CAA0001C083E0DF91CF910895009731F0FC01C4
:103CBA00648D758D868D978D089560E070E0CB01D7
:103CCA0008950E9483070895009719F044960E9468
:103CDA00452208950097B9F041155105610520E87C
:103CEA00720741F070956095509541955F4F6F4FFF
:103CFA007F4F04C040E050E060E070E8FC0140A360
:103D0A0051A362A373A30895009711F0FC0166A75B
:103D1A000895009729F0FC01738762871586148637
:103D2A0008950F931F93CF93009761F1C62F8C01CB
:103D3A00623009F118F06330B1F024C042E050E07B
:103D4A0060E070E00E94A907C817E1F02C2F42E05A
:103D5A0050E060E070E0C8010E94B907C8014496CB
:103D6A000E9431220FC020E040E450E060E070E0A1
:103D7A000E94B90707C021E040E450E060E070E02B
:103D8A000E94B907CF911F910F910895009719F0DA
:103D9A00FC01778366830895009719F044960E9480
:103DAA00312208950E94C3040895CF92DF92EF92C0
:103DBA00FF920F931F93CF93DF936115710569F1FA
:103DCA00009769F1DB01ED91FC91EF2B51F1E1E0F4
:103DDA002115310509F4E0E079016A018B01EC0152
:103DEA004C73552760E070E02E2F0E94B907B0E1AE
:103DFA00CB16D10439F4C701A0E0B0E0888B998BC7
:103E0A00AA8BBB8BEF2819F0902F812F02C090E06C
:103E1A0080E09E878F8781E005C080E003C080E054
:103E2A0001C080E0DF91CF911F910F91FF90EF9039
:103E3A00DF90CF900895009779F06115710571F0C0
:103E4A0021E930E0FC013387228775876487FB010B
:103E5A009783868381E0089580E0089580E008953D
:103E6A00009721F04427507F0E94B90708950097D0
:103E7A0051F0FC0180A591A5A2A5B3A5BC01CD0175
:103E8A006627707F089560E070E0CB0108958F92F5
:103E9A009F92AF92BF92CF92DF92EF92FF920F93CF
:103EAA00FC01892BE1F1C0A4D1A4E2A4F3A44A0144
:103EBA005B01882480EF982201110EC0CC2480EF88
:103ECA00D8224C215D216E217F2181E0452B462B92
:103EDA00472B81F480E00EC0CC2480EFD8224C21FD
:103EEA005D216E217F2181E0481559056A057B0510
:103EFA0009F080E08130A1F4213091F440A551A568
:103F0A0062A573A580949094A094B094842295227B
:103F1A00A622B72280A691A6A2A6B3A601C080E0D7
:103F2A000F91FF90EF90DF90CF90BF90AF909F904E
:043F3A008F900895C7
:103F3E00FC01892B39F081E020813181232B19F48A
:103F4E0080E0089580E00895CF93DF93009709F104
:103F5E00EC010E947E28288139814C855D856A8519
:103F6E007B85469FC001479F900D569F900D112453
:103F7E00B901680F791F7B836A83198618863D8382
:103F8E002C83841B950B820F931F9F838E830E941D
:103F9E008E28DF91CF9108950097A1F061157105DC
:103FAE0099F04115510591F02115310589F0FC016B
:103FBE003387228755874487718360830E94AB1FA6
:103FCE0081E0089580E0089580E0089580E00895EE
:103FDE0080E00895009741F0FC012085318581E055
:103FEE00232B19F080E0089581E00895009721F0C9
:103FFE00FC0180859185089580E090E008950097FA
:10400E0041F0FC012085318582859385821B930BBF
:10401E00089580E090E00895FC01892B51F02085F1
:10402E00318581E0428553854217530719F080E0B0
:10403E00089580E008950F931F93CF93DF93009719
:10404E00C1F0FC0120853185232BB1F0EC010E94DB
:10405E007E280E811F818C859D85080F191F8A81F0
:10406E009B810817190710F0088119810E948E286C
:10407E0005C000E010E002C000E010E0C801DF91D2
:10408E00CF911F910F910895CF93DF93009711F168
:10409E00FC0120853185232BF9F0EC010E947E284E
:1040AE002E813F818C859D85820F931F9F838E83EA
:1040BE002A813B818217930720F0888199819F8303
:1040CE008E83888599850197998788870E948E2887
:1040DE0081E003C080E001C080E0DF91CF910895C0
:1040EE000F931F93CF93DF93009741F1FC0120852F
:1040FE003185232B29F18B01EC010E947E284C8502
:10410E005D858E819F81840F951F9F838E832A816B
:10411E003B818217930720F0888199819F838E833C
:10412E006E817F81C8010E94A92988859985019792
:10413E00998788870E948E2881E003C080E001C0A5
:10414E0080E0DF91CF911F910F910895EF92FF9232
:10415E001F93CF93DF93009709F456C0423008F0B7
:10416E0055C0DC011896ED91FC9119971A962D9178
:10417E003C911B97E217F30708F04AC0142F7B01FE
:10418E00EC010E947E28111119C04C855D85B70186
:10419E008C819D810E94A9292C813D818C859D85D4
:1041AE00820F931F9D838C832A813B8182179307F5
:1041BE0010F1888199819D838C831DC04C855D850E
:1041CE00B7018E819F810E94A9298C859D8591952D
:1041DE00819591092E813F81280F391F3F832E83B0
:1041EE00488159812417350730F42A813B81820F8B
:1041FE00931F9F838E8388859985019699878887DB
:10420E000E948E2881E005C080E003C080E001C0DE
:0E421E0080E0DF91CF911F91FF90EF90089507
:10422C00262F41E050E060E070E004C0440F551FC1
:10423C00661F771F2A95D2F7FC0180819181A2819C
:10424C00B381482359236A237B2381E0452B462BDA
:10425C00472B09F480E00895CF93DF930097E1F0AA
:10426C00FC011182108226833783408751876115A8
:10427C00710511F466E171E2EC017B876A8782E0DB
:10428C008C87E0917A04F0917B0409956A837B8397
:10429C008C839D8381E001C080E0DF91CF910895F4
:1042AC000F931F93CF93DF938C0161157105C1F0B0
:1042BC00892BC1F0CA01EB01D8011A96ED91FC9142
:1042CC001B975B834A832E834D915C915983488362
:1042DC00622F09958C83F801D183C08381E003C0E0
:1042EC0080E001C080E0DF91CF911F910F91089584
:1042FC00BF92CF92DF92EF92FF920F931F93CF93C7
:10430C00DF93009709F46DC08C01FC018485811149
:10431C001DC0E0917A04F0917B040995F801C280EC
:10432C00D380E480F580DC01CB018C199D09AE09AA
:10433C00BF09C680D780E084F1848C159D05AE053D
:10434C00BF0508F450C081E0848750C0F801E284B6
:10435C00F384C081D181209769F1DD24DA940F2E8A
:10436C00F3E0BF2EF02D6894CC24C2F86E818A81C4
:10437C009B81F7010995F8019485923050F09C814E
:10438C00891729F0DD8284858F5F84870EC08D8329
:10439C000CC0913051F49C81891731F0811102C00D
:1043AC009C2D01C09B2D9D838C830990D881C02DA1
:1043BC002097E1F6F8018485813061F482E08487EE
:1043CC00E0917A04F0917B040995F8016283738380
:1043DC0084839583F8018485833038F0148681E0DA
:1043EC0005C080E003C081E001C081E0DF91CF9186
:1043FC001F910F91FF90EF90DF90CF90BF90089599
:10440C00009719F0FC01858108958FEF08950097AE
:10441C0011F0FC016683089521E030E002C0220F08
:10442C00331F6A95E2F7FC0180819181282339239F
:10443C0081E0232B09F480E0089521E030E002C0F4
:10444C00220F331F6A95E2F7FC018081282381E05B
:06445C0009F480E0089560
:10446200CF93DF93009761F0EC01E0917A04F09131
:104472007B040995688379838A839B8381E001C0E9
:1044820080E0DF91CF910895CF92DF92EF92FF9279
:10449200CF93DF93EC016A017B010E9431228823D2
:1044A20051F0C701B6010E948A256C837D838E83F9
:1044B2009F8381E001C080E0DF91CF91FF90EF9078
:1044C200DF90CF900895009749F0FC011482158285
:1044D2001682178210821182128213820895FC01C1
:1044E200892B59F081E04481558166817781452B82
:1044F200462B472B19F480E0089580E00895CF936E
:10450200DF93009781F0EC010E947022813069F400
:104512002C813D814E815F81688179818A819B8175
:104522000E94C82503C080E001C080E0DF91CF91E6
:104532000895CF92DF92EF92FF92CF93DF9300978D
:10454200C1F06A017B01EC010E947022813051F4BA
:10455200CE010E948022882371F0CE010E94642243
:1045620081E00AC0B701A601CE010E94452280E087
:1045720003C080E001C080E0DF91CF91FF90EF9017
:10458200DF90CF9008950F931F93CF93DF930097FF
:1045920099F0EC010E947022813091F4E0917A044A
:1045A200F0917B040995088119812A813B81601B66
:1045B200710B820B930B07C060E070E0CB0103C06C
:1045C20060E070E0CB01DF91CF911F910F910895D0
:1045D200CF92DF92EF92FF92CF93DF930097A9F0F1
:1045E200EC010E9470228130A1F4CC80DD80EE804B
:1045F200FF80CE010E94C422A7019601261B370B21
:10460200480B590BCA01B90107C06FEF7FEFCB010D
:1046120003C06FEF7FEFCB01DF91CF91FF90EF905F
:06462200DF90CF90089527
:10462800FC01892B39F08281938124813581821B99
:10463800930B089580E090E00895CF93DF9300975F
:1046480059F0FC01C681D7810E94142321E0C817C4
:10465800D90719F020E001C020E0822FDF91CF9127
:104668000895009739F00E94142321E0892B19F04E
:1046780020E001C021E0822F0895FC01892B69F018
:1046880084819581668177810E943E290190F0811D
:10469800E02DE80FF91F8081089580E008950F93B9
:1046A8001F93CF93DF93EC018B010E943523811177
:1046B80014C08C819D816E817F810E943E29E88192
:1046C800F981E80FF91F8081F80180838C819D8131
:1046D80001969D838C8381E001C080E0DF91CF91BA
:1046E8001F910F910895EF92FF920F931F93CF930D
:1046F800DF934115510571F08B017C01EB01040F2B
:10470800151FBE01C7010E9453232196C017D10768
:10471800C1F701C080E0DF91CF911F910F91FF9009
:10472800EF9008951F93CF93DF930097C1F0162F52
:10473800EC010E942123811114C08A819B816E8122
:104748007F810E943E29E881F981E80FF91F1083D3
:104758008A819B8101969B838A8381E003C080E0E4
:1047680001C080E0DF91CF911F910895CF93DF932F
:10477800EC01892B69F11B821A821D821C827983C4
:1047880068839A0121503109CA0182239323892B16
:10479800E9F0E4E0F0E061E070E0D901062E02C043
:1047A800B695A7950A94E2F72A2B3B2B660F771F3D
:1047B800319799F72F5F3F4F36952795241735077F
:1047C80020F4A901440F551F01C0A9015F834E833E
:0647D800DF91CF9108956E
:1047DE004F925F926F927F928F929F92AF92BF9203
:1047EE00CF92DF92EF92FF920F931F93CF93DF93AF
:1047FE00CDB7DEB72B970FB6F894DEBF0FBECDBF89
:10480E00E0913C04F0913D04309709F47EC03701ED
:10481E00280189016A017B015C01CE0101964C01E0
:10482E008BE0D4011D928A95E9F76BE580E090E06C
:10483E000995E0917A04F0917B0409952AE0A40190
:10484E000E94D11020E0AC0160E070E080913C0449
:10485E0090913D040E94560EE0913C04F0913D046F
:10486E006DE580E090E00995E0913C04F0913D0407
:10487E0060E280E090E00995E114F104A1F020E0FF
:10488E00A70160E070E080913C0490913D040E948D
:10489E00560E20E0A50160E070E080913C049091FE
:1048AE003D040E94560E20E0A60160E070E080916B
:1048BE003C0490913D040E94560E0115110559F4C9
:1048CE009301A20160E070E080913C0490913D0460
:1048DE000E948C0E1AC020E0A80160E070E080916A
:1048EE003C0490913D040E94560EE0913C04F091E0
:1048FE003D046DE080E090E00995E0913C04F0917C
:10490E003D046AE080E090E009952B960FB6F8948E
:10491E00DEBF0FBECDBFDF91CF911F910F91FF90E4
:10492E00EF90DF90CF90BF90AF909F908F907F9041
:10493E006F905F904F90089590933D0480933C0448
:02494E000895CA
:10495000009749F0FC011586148617861686108A82
:1049600002960E9464220895009739F0FC01718339
:104970006083538742870E94A82408958F929F9254
:10498000AF92BF92CF92DF92EF92FF920F931F935D
:10499000CF93DF93009709F448C0480159017A0189
:1049A0006B01EC01888981112DC08C859D85892B37
:1049B00049F54A855B8541505109888199810E945A
:1049C0006329E114F10441F4F60101900020E9F7B4
:1049D00031977F01EC18FD08FD86EC861F861E8648
:1049E000188A20E030E0A901C501B4010E94F7292E
:1049F0001816ECF4B501A401CE0102960E944522DE
:104A000080E018C0CE0102960E948022882329F0FF
:104A1000CE010E94A82482E00DC08889882349F035
:104A2000CE010E94A82481E005C080E003C080E0A0
:104A300001C080E0DF91CF911F910F91FF90EF9027
:104A4000DF90CF90BF90AF909F908F9008950F937D
:104A50001F9300E010E098010E94BE241F910F9167
:104A60000895FC01892BF9F0808981111EC02485ED
:104A7000358521153105D9F086859785A081B181CD
:104A8000A80FB91F8C91861314C08685978501964F
:104A900097878687868597852817390761F481E08F
:104AA000808B8089089580E0089580E0089580E0FB
:0A4AB000089580E0089580E0089565
:104ABA00609168047091690480916A0490916B0412
:104ACA0008956093640470936504809366049093D8
:104ADA0067040895009729F090937B0480937A04E1
:104AEA0008958DE595E290937B0480937A04089566
:104AFA000E94E12720916404309165044091660484
:104B0A00509167040E94002A0895CF92DF92EF9293
:104B1A00FF926B017C0120E030E0A9010E94F72995
:104B2A0018169CF42091640430916504409166043F
:104B3A0050916704C701B6010E94FC2920E030E0C9
:104B4A0040E05FE30E94C32903C060E070E0CB014C
:104B5A000E944F28FF90EF90DF90CF9008958091A8
:104B6A00680490916904A0916A04B0916B0401965B
:104B7A00A11DB11D8093680490936904A0936A04EF
:104B8A00B0936B0408958F929F92AF92BF92CF9287
:104B9A00DF92EF92FF924B015C0169017A01E09189
:104BAA007A04F0917B040995DC01CB0188199909F3
:104BBA00AA09BB0921E08C159D05AE05BF0508F4BD
:104BCA0020E0822FFF90EF90DF90CF90BF90AF90C0
:064BDA009F908F900895EA
:104BE000009709F442C06130710589F038F06230F5
:104BF000710599F06330710511F108954FEF5FEF82
:104C0000BA01FC0140835183628373830895FC01E0
:104C100020833183428353830895FC014081518175
:104C20006281738144835583668377834EEF5FEFA0
:104C30006FEF7FEF40835183628373830895FC019C
:104C40004481558166817781411551056105710562
:104C500019F44FEF5FEFBA01FC0140835183628387
:104C6000738314821582168217820895009721F1AA
:104C70006C3F2FEF720769F06D3FEFEF7E07A9F4ED
:104C8000FC01208131812F5F3F4F3183208380E001
:104C90000895FC01208131812115310579F02150E1
:104CA00031093183208381E0089577234CF0FC01A2
:104CB0007183608380E0089580E0089580E0089526
:044CC00080E00895F3
:104CC4000E94D72958F00E94D02940F029F45F3F70
:104CD40029F00C94EC2951110C94DF290C94042A2A
:104CE4000E94EB2868F39923B1F3552391F3951BA4
:104CF400550BBB27AA2762177307840738F09F5FF9
:104D04005F4F220F331F441FAA1FA9F335D00E2E65
:104D14003AF0E0E832D091505040E695001CCAF7D2
:104D24002BD0FE2F29D0660F771F881FBB1F261795
:104D340037074807AB07B0E809F0BB0B802DBF016C
:104D4400FF2793585F4F3AF09E3F510578F00C943B
:104D5400EC290C94DF295F3FE4F3983ED4F3869565
:104D640077956795B795F7959F5FC9F7880F911D5C
:104D74009695879597F90895E1E0660F771F881F48
:104D8400BB1F621773078407BA0720F0621B730BFB
:0C4D9400840BBA0BEE1F88F7E095089521
:104DA0000E94D02938F00E94D72920F0952311F0D5
:104DB0000C94EC290C94042A11240C94DF290E94F1
:104DC000EB2870F3959FC1F3950F50E0551F629F3C
:104DD000F001729FBB27F00DB11D639FAA27F00D54
:104DE000B11DAA1F649F6627B00DA11D661F829F7B
:104DF0002227B00DA11D621F739FB00DA11D621F60
:104E0000839FA00D611D221F749F3327A00D611D7C
:104E1000231F849F600D211D822F762F6A2F11245E
:104E20009F5750409AF0F1F088234AF0EE0FFF1F91
:104E3000BB1F661F771F881F91505040A9F79E3FE8
:104E4000510580F00C94EC290C94DF295F3FE4F3CA
:104E5000983ED4F3869577956795B795F795E7953E
:104E60009F5FC1F7FE2B880F911D9695879597F947
:024E70000895A3
:104E72000E94D02938F00E94D72920F039F49F3FB0
:104E820019F426F40C94042A0EF4E095E7FB0C9432
:104E9200EC29E92F0E94EB2858F3BA17620773072F
:104EA2008407950720F079F4A6F50C94DE290EF418
:104EB200E0950B2EBA2FA02D0B01B90190010C0128
:104EC200CA01A0011124FF27591B99F0593F50F440
:104ED200503E68F11A16F040A22F232F342F442798
:104EE200585FF3CF469537952795A795F040539590
:104EF200C9F77EF41F16BA0B620B730B840BBAF060
:104F02009150A1F0FF0FBB1F661F771F881FC2F7CA
:104F12000EC0BA0F621F731F841F48F487957795DE
:104F22006795B795F7959E3F08F0B0CF9395880F98
:0C4F320008F09927EE0F979587950895D9
:104F3E008F929F92AF92CF92DF92EF92FF920F934A
:104F4E001F930E9437292CE839E24FE652E163E8BD
:104F5E007AE380E090E00E946304812C912CAA24D5
:104F6E00A394C12CD12C76016894F7F800E010E0E0
:104F7E0020E83FE341E06DE879E281E091E00E94B4
:104F8E00670500E010E020E03FE341E062E979E2EE
:104F9E0080E391E00E9467050E94B40680E090E0F5
:104FAE001F910F91FF90EF90DF90CF90AF909F9059
:044FBE008F90089533
:104FC200E89409C097FB3EF49095809570956195A1
:104FD2007F4F8F4F9F4F9923A9F0F92F96E9BB2757
:104FE2009395F695879577956795B795F111F8CFD3
:104FF200FAF4BB0F11F460FF1BC06F5F7F4F8F4F3E
:105002009F4F16C0882311F096E911C0772321F033
:105012009EE8872F762F05C0662371F096E8862FCB
:1050220070E060E02AF09A95660F771F881FDAF722
:0A503200880F9695879597F9089569
:10503C001F920F920FB60F9211240BB60F922F9353
:10504C003F934F935F936F937F938F939F93AF9304
:10505C00BF93EF93FF930E94B425809100018F5F63
:10506C008093000198B181E0892788B9FF91EF9175
:10507C00BF91AF919F918F917F916F915F914F9164
:10508C003F912F910F900BBE0F900FBE0F901F9062
:02509C00189565
:10509E000E94F32888F09F5798F0B92F9927B7519F
:1050AE00B0F0E1F0660F771F881F991F1AF0BA95BE
:1050BE00C9F714C0B13091F00E94DE29B1E0089515
:1050CE000C94DE29672F782F8827B85F39F0B93F07
:1050DE00CCF3869577956795B395D9F73EF4909571
:0E50EE008095709561957F4F8F4F9F4F08956D
:1050FC00E0916C04F0916D04309749F00995609340
:10510C0070047093710480937204909373040895E7
:10511C00E0916E04F0916F04309749F06091700447
:10512C0070917104809172049091730409950895A3
:0E513C00ECE6F4E09383828371836083089530
:10514A00990F0008550FAA0BE0E8FEEF161617068E
:10515A00E807F907C0F012161306E407F50798F0F6
:10516A00621B730B840B950B39F40A2661F0232B0F
:10517A00242B252B21F408950A2609F4A140A6958B
:08518A008FEF811D811D0895C6
:10519200A1E21A2EAA1BBB1BFD010DC0AA1FBB1F39
:1051A200EE1FFF1FA217B307E407F50720F0A21BAB
:1051B200B30BE40BF50B661F771F881F991F1A9418
:1051C20069F760957095809590959B01AC01BD0142
:0451D200CF0108956C
:1051D60057FD9058440F551F59F05F3F71F04795A2
:1051E600880F97FB991F61F09F3F79F08795089587
:1051F600121613061406551FF2CF4695F1DF08C0A6
:10520600161617061806991FF1CF869571056105C2
:04521600089408955B
:10521A00FB0151915523A9F0BF01DC014D914517BE
:10522A004111E1F759F4CD010190002049F04D9167
:10523A0040154111C9F3FB014111EFCF81E090E024
:04524A00019708952B
:10524E0082E084BD85B5836085BD8EE387BDEEE6C5
:10525E00F0E08081826080831092610078940895DE
:0E526E0087B1836087B9209A0E94272908958E
:10527C00AA1BBB1B51E107C0AA1FBB1FA617B70770
:10528C0010F0A61BB70B881F991F5A95A9F780958C
:08529C009095BC01CD010895BD
:1052A400092E0394000C11F4882352F0BB0F40F430
:1052B400BF2B11F460FF04C06F5F7F4F8F4F9F4F70
:0252C40008954B
:1052C600FB01DC014150504048F001900D92002056
:0E52D600C9F701C01D9241505040E0F7089505
:1052E400FB01DC014150504030F08D910190801958
:0C52F40019F40020B9F7881B990B0895ED
:1053000091110C94072A80538A5028F0865C8062A1
:0853100081568650B0F70895A4
:10531800089595B181E0892785B9089598B182E00B
:06532800892788B90895F1
:10532E00803209F091110C94072A80528F55D8F7CC
:02533E000895D0
:1053400091110C94072A803219F089508550C8F7C2
:025350000895BE
:10535200FB01DC0102C001900D9241505040D8F790
:025362000895AC
:105364009111089581548A5108F4805E855A0895F4
:105374009111089581568A5108F4805285580895F0
:0E5384005058BB27AA270E944A270C94522992
:0E5392000E944F286894B1110C94DF290895F1
:0E53A00000240A94161617061806090608952A
:0E53AE0000240A94121613061406050608952C
:0E53BC00E894BB2766277727CB0197F9089561
:0E53CA00DC0101C06D9341505040E0F70895A2
:0C53D80097F99F6780E870E060E008959E
:0A53E4000E94A52808F481E0089556
:0A53EE000E94A52808F48FEF08952F
:0853F8000E9472260C94522958
:085400000E94DF260C945229E2
:065408009FEF80EC089507
:06540E009927882708958C
:045414000C940000F4
:105418000D0A004552524F52004F4B0051756172B0
:105428006B545320434C4900554E4B4E4F574E003A
:1054380061740061746964003A4E4F5420414C4CC9
:055448004F5745440030
:10544D00560400005F010002000200000000000091
:02545D005D25CB
:00000001FF
